:1000000000000120ED4D00006D1F00006D1F00007D
:100010006D1F00006D1F00006D1F00006D1F0000B0
:100020006D1F00006D1F00006D1F00006D1F0000A0
:100030006D1F00006D1F00006D1F00006D1F000090
:100040006D1F0000193100006D1F00006D1F0000C2
:100050001D2A00001D310000213100007D25000017
:10006000293100006D1F00006D1F00006D1F000092
:100070006D1F00006D1F00006D1F00006D1F000050
:100080006D1F00006D1F00006D1F00006D1F000040
:100090006D1F00006D1F00006D1F00006D1F000030
:1000A0006D1F00006D1F00006D1F00006D1F000020
:1000B0003125000025310000510E00006D1F0000A9
:1000C000250800006D1F0000610E00006D1F00007C
:1000D0006D1F00006D1F00006D1F00006D1F0000F0
:1000E0006D1F00006D1F00006D1F00006D1F0000E0
:1000F0006D1F00006D1F00006D1F000010B5054C46
:10010000237833B9044B13B10448AFF300800123C3
:10011000237010BDA800002000000000B48900007A
:1001200008B5034B1BB103490348AFF3008008BD7A
:1001300000000000AC000020B4890000154B002B2B
:1001400008BF134B9D46A3F5803A00218B460F460E
:100150001348144A121A06F05BFE0F4B002B00D016
:1001600098470E4B002B00D0984700200021040038
:100170000D000D48002802D00C48AFF3008006F0B7
:1001800023FE2000290004F04FFE06F009FE00BF08
:100190000000080000000120000000000000000036
:1001A000A8000020381B0020000000000000000014
:1001B00037B50446684680E8060003C8251D85E873
:1001C00005002373069B2361BDF81C30A382002326
:1001D0002360084B1A6812B91C6004E00A461168D3
:1001E0000029FBD114609888013080B2988003B058
:1001F00030BD00BF3009002007B503790193054ADF
:100200000368009306CA02230830FFF7D1FF03B04A
:100210005DF804FBA88900000A4B40F2011210B5FA
:100220001A604FF0FF329A6001225A6008441A4661
:10023000814202D1D869C04310BD11F8014B9461CD
:10024000F6E700BF00C00140F8B5431E504E514FC5
:10025000032B0AD8DFE803F002968C918022402518
:1002600006230724002972D104E000296BD14FF442
:10027000007208233B4432669B001A68002AFCD1B6
:1002800060E0736A13F0300F63D1434BDB6B736A2A
:10029000DC0705D5726A22F0300242F01002726269
:1002A0000324022304253A4A1566DA1992001368DA
:1002B000002BFCD03C44A4002368002BFCD0022877
:1002C00040D100293ED0324B5A6A12F0010F1A4633
:1002D00043D04FF48062C3F8A82020225A665A6A9D
:1002E00012F0300F0CBF4FF440024FF40002D3F86D
:1002F000901032EA0101FAD1520201D5D3F8A030B0
:10030000234E00210220D6F89C70FFF79DFFD6F8FF
:100310009030726A214B22F0300242F01002726279
:10032000C7F30A07316BFA0903320F2A03EA010304
:1003300028BF0F223B4343EA0273336335662368C9
:10034000002BFCD0F8BD092408234FF48075002150
:10035000A9E7032402230425F9E7536AD2F8903071
:1003600003F44003B3F5400FF8D1D2F8A030C7E74B
:100370000125022200232C4674E7202210250423A5
:1003800005246FE700297FF47CAF0822022371E780
:1003900000400E408004F21000300E4000F8FF0FC5
:1003A00070B5134C2268A2F17E63A3F58433B3F5D4
:1003B000605FE0B005460E4617D2126BA2F17E6375
:1003C000A3F58433B3F5605F0FD2536A69464FF4E7
:1003D000C0720020984730B923681B6B3246DB6A35
:1003E00029466846984760B070BD4FF40170FAE73F
:1003F0002808E10F0F4A10B41468A4F17E62A2F538
:100400008432B2F5605F0B460FD2246BA4F17E629A
:10041000A2F58432B2F5605F07D22469064A01462C
:10042000A44600205DF8044B60474FF481705DF8EE
:10043000044B70472808E10F8009002070B51C4D5F
:100440002A68A2F17E63A3F58433B3F5605FE0B060
:1004500004D34FF40174204660B070BD136B002BC1
:10046000F7D05B6A4FF4C072694600209847044693
:100470000028F0D140F201262A68A2F17E63A3F59C
:100480008433B3F5605FE4D2126BA2F17E63A3F50F
:100490008433B3F5605FDCD2936A002168469847E5
:1004A000B042E9D040F20323984218BF0446D2E795
:1004B0002808E10F154B0228D3F8803113D0032808
:1004C00014D0012814BFDBB2C3F307231B0323F4AA
:1004D0007042B1B9BAB90E49CA6E22F470421343E0
:1004E000CB6601207047C3F30743EFE71B0EEDE730
:1004F0000749D1F8E02022F470421343C1F8E030FC
:10050000EFE7002AF4D00020704700BFB081E00F71
:1005100000300E40304B1A6FD96CC90702F0070249
:1005200042D5012A40D9132851D9143813288CBF39
:10053000102308232849013BCA6C180322F47F4288
:1005400040EA03231343CB64244BCA6C1B88C2F3D9
:1005500003222833013202EB820003EB5303B3FB87
:10056000F0F3C86C013B072B20F0EE6028BF072397
:1005700040F4801040EA0363CB64194BB3F90030B8
:10058000002B10DB2833500800EB420203EB53032F
:10059000B3FBF2F30A6D072B28BF072322F070028A
:1005A00042EA03130B657047DB6CD90706D4012AB6
:1005B00004D809280BD90A380928B8E7064BDB6CA0
:1005C00013F00103B6D0012A03D82728AFE704238C
:1005D000B0E70023AEE700BF00300E404E09002018
:1005E00052090020054A064B1B68136F23F00703CE
:1005F0001843044B10671888FFF78CBF00300E407B
:100600008009C6434C09002042EA032340F201124C
:1006100093422BD0B3F5817F08D2012B1DD030D36C
:10062000B3F5807F31D0002213461CE040F2012256
:10063000934222D006D8B3F5007FF4D1174BD3F8FC
:1006400070310DE0B3F5407F23D040F20132934288
:10065000E9D1124BD3F878310BE0104BD3F8743159
:10066000C3F30722DBB203600A6070470B4BD3F879
:1006700074311A0EC3F30743F5E7084BD3F878310A
:10068000EEE7064BD3F86C31EAE7044BD3F86C3154
:10069000EFE7024BD3F87031EBE700BFB081E00F1A
:1006A000044A1368002BFCD1034B5868C0F3014087
:1006B000704700BFC800C64300300E4000B962B6A4
:1006C0007047000000F00F000138072848D8DFE825
:1006D00000F0040F1947232D4735244BD3F89430ED
:1006E00003F00703023B022B3CD8214AD05C704741
:1006F0001E4BD3F8803003F00703013B032B33D8A4
:100700001C4AF3E7194BD3F8843003F00703013B8D
:10071000032B29D8184AE9E7144BD3F8883003F0A3
:100720000703013B032B1FD8144ADFE70F4B1B6F56
:1007300013F0010F14BF0920072070470B4BD3F8AB
:100740005C3103F03003202B06D0302B06D0102B69
:100750000CBF072001207047042070470820704715
:1007600000207047052070470120704700400E4070
:10077000D86E0000DB6E0000DF6E0000DB6E000054
:100780000E4B30B50E4C5B68C9B2002304EBC302BC
:1007900015798D4203D154F8335085420BD2013381
:1007A000052BF3D1032205494B6823F0407343EA3C
:1007B00002634B6030BD5279F5E700BF00000E4088
:1007C000E474000038B5054C41F67133256C2364A0
:1007D000FFF7D6FF0DB10023236438BD00000E40A3
:1007E0000C4B984210D90C4B984210D9022201238D
:1007F0000A490B600A49D1F8003123F0807343EABB
:100800000263C1F80031704700221346F0E701226D
:10081000FBE700BF0048E8010090D0034000C84358
:1008200000400E40024B1A6FD96F0A409A6770471A
:10083000003008400A4A53685B0708D1094B5B68DF
:100840002BB1094B1B6AC3F30C03013B9361074BAC
:1008500080221A60064A136823F040031360704731
:10086000000008404C1F0021001008408840084646
:10087000F01E0021084BD3F8882012F0A00F0AD1F7
:1008800008229A60054B1B6813F4007F14BF044ACA
:10089000044A02231360704700400840001F0021F3
:1008A0000040084600400844EFF3108072B60A4B3F
:1008B0004FF080521A604FF480721A6010221A6052
:1008C00020221A604FF000521A6080221A604022E3
:1008D0001A60FFF7F3BE00BF00E100E0EFF3108005
:1008E00072B6104B4FF08052C3F880204FF48072E4
:1008F000C3F880200222C3F880201022C3F8802091
:100900002022C3F880204FF00052C3F880208022BC
:10091000C3F880204022C3F880200122C3F884203D
:10092000FFF7CCBE00E100E010B5046884EA0103E3
:1009300023EA020200F1806314401C6040F8042C9A
:1009400000F1C0600A40026010BD00004DF804BD17
:10095000EFF3108072B6144B1978E9B9134BD3E951
:1009600000234FF0000C02F4105B5BEA0C0313D180
:100970000F4B10221A600D4BD3E900234FF0000CEF
:1009800002F4807B5BEA0C030BD1094B5DF804BBDE
:1009900020221A60FFF792BE064B10221A6000292F
:1009A000E9D0044BF2E700BF28120020900D002090
:1009B00094400844944008462DE9F0410746164605
:1009C0008846FFF7C3FF07F0AA620023134348F2EB
:1009D000020108BF4FF40041B20748BF41F4005183
:1009E00000224F48FFF7A0FF07F400420023134303
:1009F00007F480324FF0000314BF4FF48051002100
:100A0000134307F010024FF0000318BF41F4807148
:100A1000134307F020024FF0000318BF41F40051C8
:100A2000134307F040024FF0000318BF41F4007178
:100A3000134307F080024FF0000318BF41F48061B8
:100A4000134318BF41F4006100223648FFF76CFFE2
:100A500008F004030022134307F400624FF0000380
:100A600014BF4FF480210021134307F480424FF05C
:100A7000000318BF41F48031134307F002024FF026
:100A8000000318BF41F4801113434FF0000307F433
:100A9000003218BF41F40011134318BF41F4002184
:100AA000730748BF41F0040101221F48FFF73CFFD4
:100AB0001E4B1F491F4816F0010F18BF194607F0BB
:100AC0000052002313434FF0000307F0804218BF89
:100AD00041F40011134318BF41F000710022FFF7E9
:100AE00023FF07F0010100221348FFF71DFF07F461
:100AF000802200231343114B1149124807F00404CC
:100B00004FF0000518BF194654EA050318BF41F419
:100B100080614FF4A022BDE8F041FFF705BF00BFA0
:100B20006C0008400C62084020400840041C500043
:100B300004185000685008403C7008400D0A0A092B
:100B4000090A0A09EC100840044B00221A70044BF1
:100B5000197811B11A70FFF7F9BE704730160020EE
:100B600028120020024B5868C0F30360704700BF92
:100B70000040084008B5EFF3108172B6FFF7F2FFAE
:100B8000032806D1074A136823F0F00343F0E0037B
:100B90001360054B01225A620846BDE80840FFF782
:100BA0008DBD00BF541F002100000840094B1B6889
:100BB00030B5C517A3FB000103FB051110F18073CD
:100BC00041F10004580E40EAC410803820EAE07079
:100BD00030BD00BFA41700202DE9F04B0C460546A0
:100BE000002800F0C280C80777D5E88A002800F006
:100BF000BE80714BAA681B68C3F17F4303F57F0376
:100C000003F576433C339B1A4FF47A7202FB0030B3
:100C1000FFF7CCFF694E7062688A002800F0AA8056
:100C2000654BAA681B68C3F17F4303F57F0303F597
:100C300076433C339B1A4FF47A7202FB0030FFF785
:100C4000B5FF5F4AAB8AF0611768002B00F0A880FF
:100C50004FF47A725A43584B1B68D21AAB68D21AB7
:100C6000584BD3F83031190440F18780A2F5484041
:100C7000AF384FEAE079A0FB07BC1BF1807007FB9F
:100C800009CC4CF10001430E43EAC113A2F53832FE
:100C9000803BA2F2BF32D1173362A2FB072312F1CD
:100CA000807007FB013343F10001420E42EAC1129A
:100CB000803A688B3260002875D03F4B1B68C3F1C7
:100CC0007F4303F57F0303F576433C334FF47A7299
:100CD00002FB0030FFF76AFF3063A20729D5EB89DA
:100CE0004FF47A7058435BB12B6803F51C531033F3
:100CF00018442B79002B46F2A81308BF0023184490
:100D0000FFF754FF2D4AD062288B00284ED0AB68E5
:100D1000A3F50353103B4FF47A7101FB00302B799C
:100D2000002B46F2A81308BF0023C01AFFF73EFFAE
:100D30009062630719D52B8A002B3AD04FF47A7052
:100D40005843A0F503501038FFF730FF1B4AA9891C
:100D500050614FF47A70484321B12B6803F51C535E
:100D600010331844FFF722FF9061BDE8F08B47F283
:100D700030504DE747F2305061E72B68A2F6C412BD
:100D8000D21AD117A2FB072312F1807007FB01339F
:100D900043F10001420E42EAC112803A326288E712
:100DA00047F23052EDE747F2305093E747F23050C8
:100DB000BCE747F23050C7E7A0170020841F00218E
:100DC000A41700200060084038B5124D4FF40022EF
:100DD0002A60114A1060114A1268D2B1104B114CAE
:100DE0001B6F00F5F42000F59070B0FBF4F4033CA9
:100DF000E4B203F00703A34202D02046FFF7F2FB60
:100E0000094B1B782BB1094B4FF4702224041A6054
:100E10002C6038BD944008461C0000208009C64361
:100E200000300E4040420F0050090020944008441A
:100E3000064B5B6BC3F3C20203F0070002B15043E1
:100E4000C3F3821303B15843704700BF003008401A
:100E5000024B59699A680A401A6170470040044081
:100E600070470000064A1146536803F07063B3F1FF
:100E7000C06F02D1D36BDB06F6D540238B60704781
:100E8000004008400D4BDB6C13F0200F0CBF00201E
:100E90000420D90648BF02301A0744BF0230C0B24E
:100EA000590744BF0230C0B29A0744BF0130C0B2F4
:100EB000DB0744BF0130C0B2704700BF00000840EC
:100EC000044BD3F89430002BBCBF034BC3F8800015
:100ED000704700BF004008400000084013B502AB57
:100EE00003E90300084B01991868009B484300EB95
:100EF0008370064B1C684FF000420023E1FB042383
:100F0000184402B010BD00BF38160020341600206F
:100F100038B50246EFF3108072B6094B094C0A4D02
:100F20001B78A1692D68DBB20DB1A1690133FFF710
:100F3000C5FB03F00303C2E90031104638BD00BF12
:100F4000351B002000500840880B0A437FB56C46D3
:100F500005462046FFF7DCFF94E80300FFF7BEFFDD
:100F600002AC06462046FFF7D3FF94E80300FFF7E4
:100F7000B5FF801BA842F5D304B070BDF8B5084D8D
:100F8000084E094F04242C60D6F888305B0300D447
:100F9000F8BD3C600220FFF7D9FF2C60F4E700BFEA
:100FA00088400846004008408840084411F0080F77
:100FB00014BF2A4A2A4A38B5054611F0010F4FF0EE
:100FC00008036961136014BF244A254A01230C46B3
:100FD0001360FFF7D3FF14F0040F14BF214A224A15
:100FE0004FF400731360214B042214F0020F1A60B7
:100FF00014BF1A4A1A4A0223136014F0100F1C4B34
:1010000014BF00221B2214F0800FDA644FF4001387
:101010000ED0184A1360FFF7ADFD04F06004402CB9
:10102000154B16D0602C06D0202C15D101220AE0D9
:10103000124A1360F1E72A6B72B1116801290BD9CA
:10104000526942F001021A610D4B80229A60002021
:1010500038BD40F20112F6E70022F4E744000846EA
:10106000440008441C6008461C600844884008444A
:101070000000084018600846541F0021186008440A
:10108000004008402DE9F04F074687B00D46144652
:10109000EFF3108872B6DFF8BC91030199444FF466
:1010A0008076624B01228640022CC9F800205E66E1
:1010B00004D14046FFF702FB012014E00DF1100AB5
:1010C0005046FFF725FF9AE80300FFF707FF012CC2
:1010D00004BF01352D18401BB0F1804F06D24046A9
:1010E000FFF7ECFA002007B0BDE8F08F4F4ADFF8B9
:1010F00054C1116FD26E07F1090321F0E00102EA39
:101100000C0C1802C9041B0622F0E00243F48033E1
:1011100040F00100C90CD20481420CBF042100211F
:10112000D20C9C4508BF41F00201904208BF41F03B
:10113000010111F0010A18BF3D4BDFF8F0C018BFE4
:101140001D60DCF8303001933A4B0598D3F800B0BD
:1011500025F0404E4FF000420023EEFB0B23CDE97B
:101160000223354A039B126802FB0E32019B9A420E
:1011700028BF1A46049B9042C3EB957584BF05F1C6
:10118000FF35DCF830302D4B05F00305A2EB000EE7
:10119000DD559C4685B1BAF1000F03D0284B41F6CE
:1011A0001F751D608B0742BF254B264D1D604D07E7
:1011B00042BF1E4B00251D671C4B03EB0715C5F8EE
:1011C0000C2107F11002120111259D509A69DD6D65
:1011D000101A7045FFF46DAF35427FF46AAF1CF80A
:1011E0000700012208B11E6663E71CB9C9F8002098
:1011F0005E6674E71E66BAF1000F08D0104B124805
:1012000041F61F7240F201141A6004601A608A07E6
:1012100006D50B4B0C480B4A0C4C1A6004601A6044
:101220004B0742BF0A4B01229A6042E70050084038
:10123000140100202C1B0020301B00200C0100207A
:101240006C50084400001F1F6C500846000001014C
:1012500000400840005108441E491F4A30B54C88E0
:101260001368B4F5E16F114623F47F538CBF5A2203
:10127000C82223F008038CBF50257825824226BF60
:101280001C0A04F47F5443F6C87423431E280B60E1
:101290004FF0010308D91149A8420B608B6107D8B0
:1012A0000F4B08221A6014E00E4A13609361F7E7AF
:1012B0000D494DF601730B608B610C4B824234BFBC
:1012C0004FF457404FF4504008221860986143F89B
:1012D000702C30BDA40D0020E81F002108410846F5
:1012E0009440084408410844044108440441084625
:1012F00008B5FFF79DFD09281CD80F4B01281A5C83
:1013000005D10E4B1B78012B14BF042244220C4B39
:101310000C491960110902F00F000B0502F00702D9
:1013200043EA00130904134301F4E021064A0B4386
:10133000136008BDFA22EAE7E0880000A40D00204F
:1013400050410844F701F70150410846084B09494C
:101350004FF48032C3F8E8200A609A6BD1B2C2F32E
:10136000072299679A6704229A6700229A67704752
:1013700000100840EC10084610B4EFF3108072B66D
:101380000E4A0F490F4C01239365C2F888300023A1
:101390000B604C6003244C620B490C800B495DF8D8
:1013A000044B0B804FF4A021C2F8E81002F1C06298
:1013B000EC321160064A1360FFF780B90010084054
:1013C00060100840C80000200A0100200801002029
:1013D000F4050020034B044A18601860034B1268A0
:1013E0001A60FEE7200000201801002024000020E1
:1013F00030B52F4A85B010685168127A01AB03C32B
:101400002C491A7008682C4B2C499A6B096800FB10
:101410000212196B2A4B1B68C9024CBFD218D21A90
:10142000284B186810B92B20FFF7D4FF04AB2649CE
:10143000B2FBF1F1194443F6FF5511F80B4C234967
:10144000E240B2FBF1F11944214B11F80B1C1D6075
:1014500002EB5003B3FBF0F3013B43EA043343EAEE
:1014600081231C490B601C49B2FBF1F301FB1322E1
:1014700064214A4319498A4298BF03F1FF335A084D
:10148000013A072A06D801335B08013B072B01D834
:1014900012B90BB91020C7E71B0243EA0213104927
:1014A000104A4FF4EE600860136005B030BD00BF15
:1014B000A06E00001809002000300840200900201C
:1014C0001C0900201C00002040BE4025401B5F136B
:1014D000A4400844A440084600F04902FFEF490236
:1014E0003040084430400846431E012B03D9031FF7
:1014F0005842584170470120704770470F4B5B6856
:10150000C3F30363013B0B2B0DD8DFE803F0141486
:101510000614140C14080A08080803207047042055
:10152000704705207047064BDB6813F0060F14BFA9
:101530000420012070470220704700BF004008408F
:101540000050084003789A072DE93048014611D52C
:10155000C26A7AB16FF34103037053691A68531C6E
:101560000AD01D49D1F83C311B0C1B0492B2134325
:10157000C1F83C31BDE83088D0E91423002403F0E1
:10158000040554EA050304D1037843F00203037011
:10159000F0E7EFF3108072B60B69CA6803F480338A
:1015A0001A43CA60FFF78AF800229BB90023D1E9E9
:1015B000144502EA040B03EA050C5BEA0C03D9D0DC
:1015C000064804685A46A1F10C0063462146BDE86E
:1015D000304808470423EAE700400840280000207C
:1015E0007047000047F6FF739A4270B558D02D4BF4
:1015F0001B682BB12C4C246814B12C4D2D682DB9CF
:101600002B4B2A221A602B4B1860FEE771B101297F
:101610000DD1062335F91310914218B202DC0130C6
:10162000C0B270BD013BF5D11846F8E71C46B4F9CD
:101630000010914203DB20499142B8BF1146282295
:10164000A1F1C80393FBF2F31C4A646815785B426E
:101650001BB29D42DCBF05F1FF331BB24FF47A761B
:1016600004EBC3020133508852681BB211FB002007
:1016700020EAE0709D4200F5FA70B0FBF6F203DD5F
:1016800034F833009042EBD203F10053013B34F8BD
:101690003300904228BF1046002808BF0120BFE752
:1016A000FF20BEE7201B0020281B0020241B002059
:1016B0002000002024000020C880FFFF31160020F9
:1016C000094B30B5196C5C6C0022234642EA0104D8
:1016D000220C82701A0A210AC2701A0C1B0E0470A6
:1016E00041700271437130BDB081E00F214BD3F8DE
:1016F000F82102401CD170B4D3F8FC51D3F8006239
:1017000003F5FC74641BA410022C12D0032C29D006
:10171000012C1AD0184A52682A6005F10C02686040
:10172000C3F8FC21A96033680C33336070BC704788
:101730007047114A1C1D52682A60686004221960B3
:10174000C3F8FC41326070BC70470B4C1A466468A9
:101750002C6042F8080B08205960C3F8FC21306067
:1017600070BC7047044C6468A960C5E90040C3F8C8
:10177000FC31E7E71C180020001000E0837DDB0748
:1017800001D5808A7047D0E901239B1A44BF828A21
:101790009B1898B270470000044B5A6D22B95865E7
:1017A000A3F858100120704700207047B8080020A7
:1017B000D0B50C4CE38C0A20584305F055F806468A
:1017C000A08C0F4605F050F80022074B05F0B6F844
:1017D00002460B463046394605F0DAF905F0C0FA04
:1017E0002083D0BDB80800200000F43F084A10B59F
:1017F000146840F2E243584303FB0141536800F58B
:10180000807001EB500118441160506010BD00BFA2
:10181000B808002070B500228AB01346D91003F032
:101820000704415C2141CC0741BF0AA98918013254
:1018300001F8283C0133252BF0D10E4D0023D9109F
:1018400003F00704415C2141C90707D5E91881F875
:101850002A300133252BF2D10AB070BD0AAE93FBBA
:10186000F2F102FB11313144EC1811F8286C84F8C4
:101870002A60EEE7B8080020012810B514BF012443
:10188000022420460CBF04212146FFF72DFE70B133
:101890000120FFF729FE50B1FFF730FE420706D4C2
:1018A0000D4B188840F0807040EA044018600846EC
:1018B000FFF71AFE78B10120FFF716FE58B1FFF7C7
:1018C0001DFE830707D4044A13681B0C1B0443F452
:1018D00080730B43136010BD001F0021024B986CF6
:1018E00080B28002704700BFB081E00F7FB50E4B21
:1018F00002466D4603F11006186859682C4603C469
:101900000833B3422546F7D1531E04A90F3211F80C
:10191000014D13F8010F844204D19342F7D1012005
:1019200004B070BD0020FBE7A96E000070B51A4D31
:10193000286810BB194B1A4CE41A1A4B1C4424F4A7
:10194000FF6424F00704FFF7C9FF844214D2666BDA
:10195000A6B1FFF7C3FF864210D2FFF7BFFF06F123
:10196000380383420AD83046FFF7C0FF30B1F3692D
:1019700033F0080302D02C60286870BD04F1FC0627
:101980003046FFF7B3FF20B1D4F8183133F0080325
:10199000F1D104F50064D6E77C030020100000209C
:1019A000A4000020FF910000BFF34F8F0549064BB4
:1019B000CA6802F4E0621343CB60BFF34F8F00BFED
:1019C000FDE700BF00ED00E00400FA050A4B1A68CD
:1019D000A2F17E63A3F58433B3F5605F09D2126B85
:1019E000A2F17E63A3F58433B3F5605F01D2D36BBC
:1019F000184740F2011070472808E10F0D4B10B452
:101A00001C68A4F17E63A3F58433B3F5605F0BD249
:101A1000246BA4F17E63A3F58433B3F5605F03D236
:101A2000A36B5DF8044B184740F201105DF8044BBE
:101A3000704700BF2808E10F064B1A68A2F17E63C9
:101A4000A3F58433B3F5605F01D2536A18470020D1
:101A5000704700BF2808E10F064B1A68A2F17E63A9
:101A6000A3F58433B3F5605F01D2136A18474FF4CE
:101A7000817070472808E10F064B1A68A2F17E6357
:101A8000A3F58433B3F5605F01D2D36918474FF4EF
:101A9000817070472808E10F114B196801F17043FC
:101AA00003F5F813B3F5006F0CD20E4B1B68A3F1CE
:101AB0007E62A2F58432B2F5605F03D209680A4AF9
:101AC000914203D000230370836070471968074A6E
:101AD0009142F7D1012202709A6842609B69F3E754
:101AE0002800E10F2808E10FAD1007B007B0CD5E68
:101AF00010B50C4630B90448FFF7CEFF034B236006
:101B00000423A380002010BDD0030020D4030020B4
:101B100010B508B3114B1A68918881421CD399887B
:101B2000814281BF0121126899809A6099889A68E0
:101B300000242AB904B19A604FF6FF71998009E038
:101B4000884204D00131126889B20124F1E70CB156
:101B500098809A60104610BD0022FBE738090020EB
:101B600037B50D461446FFF7D3FFD8B10369828A13
:101B700063B14FF6FE718A4208D100200090ADF8A3
:101B800004006946984738B103B030BD2B6022800D
:101B9000286848B92080F7E7009B2B60BDF8043027
:101BA0002380F5E70120EFE70020EDE737B50D468C
:101BB0001446FFF7ADFF70B1036973B1818A4FF628
:101BC000FE72914209D10095ADF8044069460120AA
:101BD000984703B030BD0120FBE70E20F9E7000075
:101BE0000B4BD3F8942002F00702022A04D001D351
:101BF000042A0AD9074800E00748D3F80031C3F3A4
:101C000004230133B0FBF3F070474FF40040F4E7D6
:101C100000400E40C0EA210100F0490208B5FFF77C
:101C2000DFFF044BD3F81031C3F308230133B0FBBB
:101C3000F3F008BD00400E4010B50446FFF7EEFF7C
:101C40008C40641142F210714C436423B0FBF3F0FA
:101C5000B4FBF0F010BD00003F4B404A2DE9F047C7
:101C6000002814BF80464FF00108C3F800803C4BA9
:101C70009B69C3F38213062B0F46137064D0394B54
:101C80001B78022B62D0012B0CBF3225B4255FFAE2
:101C900085FA08215046FFF7CFFF4FF003090426CD
:101CA000082480450ED053D93444E1B25046FFF7A2
:101CB000C3FFB9F101094FEA5606F2D1804538BF9A
:101CC00004F1FF34264B2A04C3F8BC20264A40F610
:101CD000FF71116002F1007221021160D3F8BC8023
:101CE000D3F8B8905FFA88F009F00F01FFF7A4FF6E
:101CF000C9F303110646C8F30720FFF79DFFC9F398
:101D000003210644C8F30740FFF796FFDFF854802D
:101D10003044A8F80400FFF781FF05FA04F44FF4FB
:101D2000FA75124B6C4341F66A05B0FBF5F0B4FB53
:101D3000F0F40A204443012138461C60FEF74CFFB2
:101D4000B8F80400BDE8F0870025A0E796259EE7D7
:101D500038BFA41BA9E700BFA00D00202C00002065
:101D600000600840A40D0020B8600844A0170020BF
:101D7000026B38B55AB11368022B08D9536A126A3C
:101D8000D8B25043C3F30723B0FBF3F038BD274B61
:101D90009C6904F03003202B36D1C4F3024018B103
:101DA000C4F3C421B1FBF0F014F4C01F18BF40000D
:101DB0004108032928BF0421FFF730FF1B4A156D96
:101DC000ABB22BB1C5F30745C0086843B0FBF3F3D2
:101DD000D2F830211204164A126C02F4C05248BFE5
:101DE0005B08B2F5805F05BF104A126BC4F30112A5
:101DF000C2F34162022A11D0032A15D0012A00D170
:101E00005B0803FB01F0C1E7C4F38213012B01D08F
:101E1000042B01D10221CFE70121CDE7C4F3C42275
:101E20000132B3FBF2F3ECE79B08EAE700600840FD
:101E30000000084008B5FFF7D3FE044BD3F8083183
:101E4000C3F308230133B0FBF3F008BD00400E409C
:101E5000FFF7C6BE404B2DE9F74F93F800A03F4D6A
:101E600080460E4617469946BAF1000F3AD1FFF761
:101E700035FD3B4CA0F580502060FFF72FFD394A1F
:101E80000123A0F5006060601360216801930431B4
:101E90000820FEF7C1F92268019B1268824208BF40
:101EA0002268616808BFD2F804B001F104014FF064
:101EB00008000CBF9A46D346FEF7AEF963681B686C
:101EC000834205D163685B685B4506D8002305E063
:101ED000BAF1000FFAD1FF2300E001232B70012398
:101EE00089F8003095F900305A1C05D1002038706F
:101EF000306003B0BDE8F08F194ADFF86C9052F8FB
:101F000023500C352C464FF6FF7AC4F30A030833EE
:101F1000B3F5006FEAD2A3885345E7D0A079211D1D
:101F20000430FEF779F923688342E38802D1A2885E
:101F300042450BD0DBB2033303F4FE7308331C4479
:101F400085EA040313EA090FDFD0CFE708343B70BA
:101F500001203460CDE700BF1418002018000020D5
:101F6000440900201816C84300F8FFFFFEE70000F0
:101F700037B50379124A03330446019300F1440351
:101F8000009306CA02231430FEF712F9228A019246
:101F9000E268237A009204F12C0094E80600FEF730
:101FA00007F9237AA4F84500054684F844302279DD
:101FB000216804F1470004F042FF284603B030BD19
:101FC000A089000070B50E4C0E4B04F11C020646B1
:101FD0000D4692E80300243483E803001846FEF718
:101FE0000BF9094B94E8030002221A7283E80300FC
:101FF000DE601D821846BDE87040FFF7B9BF00BF24
:10200000A06E0000B017002000070020042806D8AA
:102010000138032806D8DFE800F00202020200239C
:102020001B78FFDE70470000B1F9122047F6FF73FE
:102030009A4210B50BD0074B04791978064B1868F3
:10204000FFF7D0FAA04234BF0020012010BD0120CC
:10205000FCE700BFA40D0020180100202DE9F0418D
:10206000054616468846FFF789FBAB8A181A80B2E8
:10207000864228BF064637465FB93EB1D5E90132F0
:102080009A4202BFAB7D43F00103AB753046BDE819
:10209000F081AB8A2C68A8681C44241AA3B2BB4206
:1020A0008CBF3C46A4B22246414604F0C8FEAB6851
:1020B0002968AA8A23440A44A0449342A7EB040453
:1020C000AB60A7B228BFA960D6E770B50446154635
:1020D0001E4611B3FFF752FBA38A181A80B20128DB
:1020E00029D9E37D63B1E368628A1A70120A07D0C6
:1020F0002068A18A013301448B4228BF0346F4E7DC
:1021000000236382A368E360022204F112012046E7
:10211000FFF7A4FFE37D0133E375324629462046ED
:10212000FFF79CFF638A03446382E37D13B9238A2C
:102130000344238270BD0020FCE700002DE9F0413C
:10214000DFF8348007460D4614460CB9BDE8F0812F
:10215000EFF3108672B623462A4639464046FFF70B
:10216000B4FF03463046FEF7A9FA002BEDD0E41A7F
:10217000A4B21D440027E8E7D810002013B50023BF
:1021800001F10804ADF80430ADF8060021461A4606
:10219000083151F8100C70B90BB1ADF804200422CD
:1021A0000DEB020101200834FFF7C8FF54F8101CA2
:1021B00039B902B010BD51F80C3C1A4492B2012357
:1021C000E6E734F80C2C0020EDE700007FB5002393
:1021D0000130CDE90101CDE904336946044B009398
:1021E00004200392FFF7CAFF07B05DF804FB00BFAD
:1021F000BE0300202DE9F041164605468846FFF74C
:10220000BDFA864228BF0646B6B237464FB92EB150
:10221000AB7DDA0744BF23F00103AB753046BDE860
:10222000F081AB8A2C6869681C44641AA3B2BB4273
:102230008CBF3C46A4B22246404604F000FE6B68C8
:102240002968AA8A23440A44A0449342A7EB0404C1
:102250006B60A7B228BF6960D8E770B51E46038AD5
:1022600004461546EBB9C27DDAB10123013A0B7081
:10227000C27500F110010222FFF7BCFFE37D9BB1A4
:10228000228AB24228BF324629462046FFF7B2FFD3
:10229000238A1B1A2382E37D13B9638A1B1A638284
:1022A00070BD00230B70EBE7638A2382E8E7000030
:1022B00070B50E46B0B9FFF739FB0446FFF736FBA1
:1022C00060B1094D04F1FC0304F59A74186859686B
:1022D0002A4603C20833A3421546F7D1034B3360A5
:1022E0000423B380002070BD80030020A0030020E1
:1022F00010B50E4CD4F8002108B9FFF771FCD4F8E2
:102300000031FFF76DFC0446FEF7CAF968B1084BCF
:1023100040221A6119B1074A1368002BFCD12046EC
:102320000021BDE81040FEF74DBA10BD00400E4040
:1023300000300E40C800C6432DE9F3476C4BCDE991
:102340000001154668A1D1E900011C68DDE9002300
:1023500002400B40134300F09480664BD3F81C31CD
:10236000DDE90023002302F08052134309D0624BC1
:102370001B6803F07F43B3F1007F02BF5F4B022273
:102380001A60DDE90023002302F00102134358D054
:10239000EFF3108072B65A49DFF89081D1E900233B
:1023A00022F001061F46C1E90067564A564901233B
:1023B00013608B63FEF782F9EFF3108972B6FEF7B4
:1023C000D1FB8B689B09C3F3090A0246980548BFF5
:1023D0004AEA080AFEF7C6FB0238C0B201280FFA23
:1023E0008AFA73D8931EDBB2012B8CBF0023012322
:1023F0004846FEF763F91AF5007F69D1002BDBD15F
:1024000000221146A4F812A0012000F039F9236A35
:1024100013F0800F14BF3D4A3D4A4FF40013136080
:102420003C4B1A683AB13C496FF0FF00086001F17B
:10243000007102400A6000221A60237B43F0080307
:102440002373DDE90023002203F00403134318D0B3
:10245000DDE9006727F00407EFF3108072B6E36947
:10246000A26903F001031A43A261FEF727F90022D3
:10247000002B32D1002346EA020047EA0301CDE9EE
:102480000001D4E91723DDE9008908EA020809EA16
:10249000030958EA09030ED0204B4246196820462A
:1024A0004B4608F008060027884756EA07031EBF78
:1024B0001B4B00221A60EB0711D51A4A1368002043
:1024C000106063B102B0BDE8F047184700238FE702
:1024D000154A002B08BF924692E70423CBE702B0CF
:1024E000BDE8F087AFF30080010018100400000081
:1024F0001801002000500840001F0021004008463D
:10250000900D00203C700844007008401860084698
:1025100018600844A81700201870084428000020FC
:10252000F00500201818002000FEFFFF00FCFFFF50
:102530000F4A136BD16B0B4010B59363DB0715D5B6
:102540000C4BD3E90023002102F0010050EA010303
:1025500002D11220FEF73EFF074C0123002201208A
:1025600000212370FFF7E8FE0023237010BD00BF99
:1025700000700840900D0020F01100200F4B10B5A6
:102580005C691A6A1440A2B2DA61E20706D5FEF766
:10259000E9FA014640F20510FFF7A8F863070CD5E9
:1025A000074B084C1A680020012302F004020021A6
:1025B0002370FFF7C1FE0023237010BD00400840C8
:1025C000880D0020F01100200D4B1B782DE93048BC
:1025D0009BB10C4B1C6DC4F30C0474B9FEF7B4FA38
:1025E000094B0A4DD3E900BC224601230BF480506D
:1025F00000212B70FFF7A0FE2C70BDE8308800BFD3
:102600003016002000100840900D0020F01100202E
:1026100038B50546EFF3108472B6FEF7ADFE35B15E
:10262000FEF792FA2046BDE83840FEF747B8034B64
:102630001B78002BF6D1FFF7C7FFF3E7F01100205E
:1026400038B50C4BD3F8EC5003F18063EC334FF406
:1026500080641C60084B00201860FFF7D9FF074B0F
:102660004FF400521A606A0542BF03F100739833B9
:102670001C6038BD00100840F005002054100844CC
:102680002DE9F04781460F461646EFF3108872B6E3
:1026900019B34B490A46D1F8703103F00F03032BED
:1026A00001D0092B06D1D2F88C30D803F3D4536F64
:1026B0000C2BF0D9FEF762FC424B01221A6003F1A9
:1026C0007E437C3304221A60FEF74CFA002873D153
:1026D0003D4A136823F0F00313603C4CA0232360B1
:1026E0003B4BD3F83021D2070AD53A4901220A6080
:1026F0004FF40061596638490A604FF480525A66B7
:10270000334D364BEB6600232B67FEF737FC344A1C
:10271000DFF8ACA0136843F040031360314BFF2295
:102720001A604FF48073CAF8083004232360B9F1AB
:10273000000F10D0FEF71EFA2220FEF7C1FB4FF467
:1027400080236B602023CAF80830234B01221A60D3
:102750004FF480536B6657B33046FFF759FF224B57
:1027600001221A601EB3214BDA6E9A6603F580438C
:102770001A6ADA6103F50053D3F80C22C3F8082271
:10278000A3F54053DA6F9A67A3F50053D3F8EC2012
:10279000C3F8E82003F5C043DA6B9A63A3F500534E
:1027A000134A5A66FEF7D0F94FF47C432360404643
:1027B000BDE8F047FDF782BFFEF754FB84E700BF9A
:1027C000004008400C400846541F0021884008443F
:1027D00000500840305108444051084400000101B5
:1027E000F01E0021004008440C400844000008404E
:1027F0005000F0022DE9F8431F46C369012B06463D
:102800000D46914600F0D380FFF708FA0446FEF724
:102810000FFB8046FEF772FE012808D00022114609
:102820000120FFF72DFFFEF769FE0128FBD1B9F863
:102830000C30D9F80410200BED1AD9F80830C0EB91
:102840008040B0FBF8F0C0098342ADB281BFB3FB5A
:10285000F0F00130B3FBF0F41A1B8CBF05FB021142
:102860001C463F2D82BFAA099B0103FB0211514B5D
:102870001A6888BF05F03F059142994605D14E4B35
:102880001B689C4201D1002F7DD0FEF7D1FA804613
:10289000FEF7CEFA00285AD0484BB3FBF0F399422A
:1028A00055D3474BB3FBF0F0814250D8B8F1010F3C
:1028B0004FF010034ED1434A136008FB01F7C9F8EB
:1028C0000010414ADFF81C910023F804790B03F053
:1028D000F9FCC9F82C00D9F830103B48C1F31301BA
:1028E0004FEAC8420023A1FB000103F0EBFC374B89
:1028F000354A1860304BE0041C60A0FB0801630BF4
:1029000008FB0311002303F0DDFC314AC9F83C0049
:10291000137823B9D9F8503003F03F0313702D4BCF
:10292000D3F89430590623D52B4BB7FBF3F340F281
:102930004D5103FB03F041434CF20C6000FB1313B9
:1029400003F5C91303F555635BB92B2000E00E2096
:10295000FEF740FD214A1360B8F1000FADD102200F
:1029600026E011781E4A4A43B2FBF3F31D4A136571
:10297000FEF73EFD174BD3F83831DB0654BF1A483B
:102980001A48FEF721FA3046FEF7DCFDFEF7EAF8BA
:102990000428FBD00A28F9D008B10F20D8E7114B42
:1029A0009D6303F5805380229A60FEF721FD00208D
:1029B000BDE8F88320090020180900200037178996
:1029C000007DDAAC3841084400F049021C090020BF
:1029D000341B00200040084000366E013841084694
:1029E0008096980000300840C0CF6A00E06735004C
:1029F00008B500214FF48570FEF778FE064B0022E3
:102A00001A61012211461046FFF73AFEFEF776FDE5
:102A10000128FBD108BD00BF441600202DE9F84F66
:102A2000894B1E6EDA6E16409E6603F58053D3F80E
:102A3000E070D3F8EC201740C3F8E87003F5A0432A
:102A4000D3F80012D3F80C2201EA020BC3F808B243
:102A5000A3F5005359691A6A01EA02084FEA1842BD
:102A60001204DA61794BD3F80022920005D4D3F82E
:102A70000031C3F34073002B54D0EFF3108072B6D3
:102A8000734BDA68D96D12F0060F9A6E01EA0209EB
:102A900029F4800214BF4FF0010A4FF0000A22F41B
:102AA000006219F0040F5A6604D06A4A13780133A1
:102AB000DBB21370FDF702FE002E4DD0350434D585
:102AC000654B6649D3F88830A02003F4E0520A60D1
:102AD0000860102041F8880C4AB3DC042AD4580559
:102AE0002BD54FF40014B1074FF0000509D55A4B10
:102AF0005A49D3F8883003F460420A6002BB44F4B8
:102B0000801416F4005618BF0226554B3B40002B8C
:102B10005FD017F4206F22D00020FFF779FD062048
:102B2000FEF758FC9A469946C6E70024DBE74FF4C7
:102B30000024D8E74FF00074D5E74FF40004D2E743
:102B40001A0402D544F08064DBE798044CBF44F4D7
:102B5000800444F08074D4E700240025D5E717F002
:102B6000090008D03C4B20229A60A3F54053012273
:102B70009A620820D4E717F010630DD0364B20225C
:102B80009A60384A0123C2F8B830FFF73FFA0423AD
:102B9000C2F8B8300920C3E717F4202F04D0184634
:102BA000FFF736FD0720BBE7F90312D52E4B4FF494
:102BB00080321A602B4BC3F8E420D3F88020C2F394
:102BC0000C023C2A05D8D3F8E030DA0301D5FEF731
:102BD000BDFB7B0709D5254B1A684FF40053002A2B
:102BE0002DD0234A44F480241360780548BF44F074
:102BF000040417F480274BD01E491F4A0B88128803
:102C00001E481A44033A04339BB202F03C020B8084
:102C100002441B494B62937803F00703042B03D152
:102C20000D4841680903FCD41649013B0A60062B94
:102C300008D8DFE803F02BD12BD4D7DADA00124A18
:102C40001360D2E703206BE70000084000E100E0DA
:102C500000500840351B00200040084088400844D0
:102C6000090A0B0900100840EC100844B4040243A0
:102C7000241008440A01002008010020C800002098
:102C800060100840F40500202410084644F4005465
:102C9000BBF1000F1DD01BF4805F18BF44F400444B
:102CA0001BF4807F18BF44F480341BF4005F18BF0E
:102CB00044F010041BF4007F18BF44F020041BF400
:102CC000806F18BF44F040041BF4006F18BF44F03D
:102CD0008004B8F1000F2FD018F0007F18BF46F025
:102CE000080618F0806F18BF46F0100618F0006F45
:102CF00018BF46F0200618F4802F18BF45F00405D1
:102D000018F4803F18BF44F4006418F4801F18BF03
:102D100044F4804418F4001F18BF44F0020418F46F
:102D2000002F09D0FDF71EFF831EDBB2012B01D956
:102D3000072801D144F40034B9F1000F00F081807C
:102D400019F4006F15D0A249A24ACB78002B4FD0BE
:102D5000013B4FF40060DBB25066CB704BB99E4B29
:102D6000197840F6014300294ED002F1C0626C325E
:102D7000136019F0007F04D02B20FEF7A1F844F077
:102D8000804419F4E00F06D119F4805F4DD0BAF1F8
:102D9000000F00F0D18019F4001F04D02920FEF7A5
:102DA0008FF844F0005419F4800F2FD08B4B012280
:102DB0001A60884A4FF4805353662720FEF780F844
:102DC000874BA0211960102143F8881C4FF4800321
:102DD000536644F0805428E044F4806458E744F497
:102DE000007455E744F4807452E744F008044FE758
:102DF0007C49012008607C484FF4006141F61F7C4B
:102E00005166C0F800C051661367B2E719F4801F1D
:102E100077D0724B01221A606E4B4FF480525A6683
:102E20002820FEF74DF844F0006419F4806F08D0B4
:102E3000674A9378002B00F0C280013B9370002317
:102E40001E436A4BDFF8EC91D3E900AB684B1A687C
:102E50000AEA0400012332400BEA050189F8003038
:102E6000FFF76AFA002389F80030EFB1614C23685C
:102E7000C3B1D80714D4EFF3108572B65E4E5F4825
:102E8000378807F03F0101F03C0C022B844440F0EE
:102E900018812368002B40F0CF802846FDF70EFCF8
:102EA00000232360FFF790FBB8F1000F27D018F044
:102EB000007F12D0524BD3F83821D20600F1168190
:102EC000D3F8002122F47F11520802F4FE120A43C3
:102ED000C3F800214FF00072DA6118F0006F0ED0D5
:102EE000474BD3F8383113F0100F0CBF454A464A10
:102EF0004FF400131360454B4FF000621A60BDE8B9
:102F0000F88F19F4805F90D0344B324A0121196058
:102F10004FF4805353662220FDF7D2FF4FF48023F5
:102F20005360D36D13F4A00F7FF47FAF2A20FDF719
:102F3000C7FF374B99624CE7254A137963B1013BD0
:102F4000DBB2137123B10022002314431D436CE74D
:102F5000304B314A1A60F6E7204B01221A601D4BB4
:102F60004FF4805159661F490A604FF400625A6657
:102F70002A4ADA66EFF3108B72B6294B1B780BB135
:102F8000FDF7F8FD224B1A6DFDF7ECFD032802D08A
:102F9000C2F30C022AB1234B1A78234B4FF0010ADB
:102FA0001A705846FDF78AFBBAF1000FCBD11F4BC0
:102FB00083F800A0FDF7CAFC4FF48052C4E71C4A16
:102FC00001231360034A4FF48061516638E700BF64
:102FD0000C01002000500840AC170020405108446C
:102FE00088400844305108446C500844900D00203B
:102FF000880D0020F405002008010020C8000020F2
:10300000004008400041084418410844204008445A
:10301000001008406C5008460000010D000001013E
:10302000AD170020AE170020301600202812002017
:1030300020510844F011002023F00103226822F0FF
:1030400001029A4241D1002222601A886FEA42426C
:103050006FEA52429C451A802AD12A490A8802EB1B
:103060000709294F8C46A7F1400A043A92B2191D6C
:10307000A9EB0200B94228BF5146042A80B22ED8DB
:1030800099781B88214FACF80020C3F30C03FB6335
:1030900001F0070100F07F031D4833800429C3605D
:1030A000426205D11B4B1B6803B19847FDF7DAFE5E
:1030B000164BD3F8E030D9037FF5EFAEFEF746F9B3
:1030C000EBE6012B08BF6346B8E75A1A0D49098899
:1030D000121A48BF403204399142B6DCDDE6B1F93C
:1030E00000E0BEF1000FCBDA0B46BEE7D3F81821A3
:1030F00022F47F11520802F4FE120A43C3F8182189
:10310000E8E600BF0A010020080100200010084086
:103110006010084040160020FFF780BCFFF77EBC1F
:10312000FFF77CBCFFF77ABCFFF778BC2DE9F74FBF
:103130007A4E11464FF486701D461446FEF7D6FAB5
:103140003369B14633B94FF4837003B0BDE8F04F33
:10315000FEF7CCBA002D08BF082C40F0A980EFF391
:10316000108B72B66E4A6F4C16886F4924686F4D8B
:1031700006F03F0202F03C0008447CBB2C8834443B
:10318000033C04F03C040C44A21A521A2D8848BF98
:103190004032954225DC5846FDF790FA0024D9F8D4
:1031A0000430C9F814405B7A89F81830FB1F5F427D
:1031B0005F4199F81930A9F81AA067F3000389F85C
:1031C0001930019BC9F81C305949D9F81030022038
:1031D000984703B0BDE8F04FFFF732BA24F001047E
:1031E000D2E7A042534829D1C6681FFA86F8016881
:1031F00001F00701063101268E404F49D1F88010B9
:10320000C1F30C018A42B6B23DDA25882A04C2D441
:10321000A778C5F30C05701EA5EB080507F0070796
:1032200030432840052F85B212D9FDF72BFE281A0E
:1032300000B200280DDA0420FEF7CCF8251F8D42DD
:1032400038BF04F13C05B5F80080C8F30C08CEE7A0
:1032500028B21FFA80FA394A013E126808EA0606C7
:10326000931958460193FDF729FA002C97D0002FA7
:1032700095D0082F93D0EFF3108072B6304B1C60BE
:10328000FDF71CFA8BE78268701EA2EB080A304338
:1032900000EA0A001FFA80FAFDF764FCBAF1000F99
:1032A00004D103280CBF08270027D4E70827D2E75A
:1032B000002D08BFB4F5002F05D10021012003B077
:1032C000BDE8F04F184704F4C0520023134309D05F
:1032D0004FF480714FF48170FEF708FA33690021D2
:1032E0000320ECE704F440720023134309D00121CA
:1032F0004FF48170FEF7FAF9D9F810300021FF2061
:10330000DDE704F020720023134319BF012140F2CE
:10331000011021464FF48370ECE700BF44160020F3
:1033200008010020F4050020C80000200A01002048
:103330005C1600203010084000100840C400002037
:10334000F00500202DE9F0415D4A536986B01BB3BA
:10335000022B15682DD8EFF3108072B6594A5A4FD8
:1033600011885A4E01F03F021AD1594BB7F800C0EC
:103370001B6833B901EB0C03033B03F03C033344FC
:1033800001E023F001039A1A921B398848BF4032AA
:1033900091420ADCFDF792F9204606B0BDE8F081C3
:1033A000012BF0D102F03C03E9E7FDF787F9002B90
:1033B000F2D0B3F800809F7818F4004F07F00703AD
:1033C000EAD1052BE8D9FDF75DFDC4B2002CE3D0AE
:1033D000404A166806F007060123063603FA06F689
:1033E000A8F10603711E9BB219405368761AA4B265
:1033F00043F00058A64241445DD23246684603F08D
:103400001EFDA21B41460DEB060003F018FD04A8AB
:10341000DDF80240FDF77CFDDDE90432944288BF0F
:1034200003F1FF3303F00303CDE9023402AB93E869
:103430000300FDF753FD284A2B6CD2F83021160407
:1034400006D5264C17F0080F4BF6EB6318BF234642
:103450004FF47A7403F5FA73B3FBF4F3C41A05F16D
:103460000C00FEF785FC1C49D1F830311D0425D431
:10347000CB6DC3F301151B0C05FB033242F2107335
:103480009A4289D8CB6903F01F0301331344124ACF
:103490001349D2F83021120444BF9B001148142272
:1034A000B0FBF2F201FB03230A22B0FBF2F0B3FB04
:1034B000F0F3E41A70E722466846A6E72F23E6E712
:1034C00044160020080100200A010020C800002046
:1034D000F40500203010084000600840FBD90200CD
:1034E000A086010020A107002DE9F041424C22787E
:1034F000032A804602D0C820FDF7AEFE26783F4D55
:10350000032E06D14FF0FF0885F800804046BDE845
:10351000F0813B4C3B4A2368012E02EA03021AD198
:10352000B8F1070F14D8B8F1010F08BF4FF0020827
:10353000354B042142EA086219601FFA88F85FFAE5
:1035400088F82260404685F80080FDF785FEDDE7BB
:103550004FF00708ECE742F47F5747F00807002ECA
:1035600044D1B8F1040F42D901260423A8EB030883
:10357000264BD3F88811C94301F4FE1141F40051E0
:10358000B1FA81F1C1F11301C1EB41115FFA88F881
:10359000CBB2434528BF434603EB86080BB1013B42
:1035A000DBB21F21B3FBF1F1C1EB41129A1AC9B290
:1035B0004FF0FF331206013103FA01F102F180727C
:1035C000C9433A4342EA8132B8F1000F1049114B26
:1035D00018BF4FF07F43C1F858314FF4800346B114
:1035E00001F1C06101F584710B60A8E70026334644
:1035F000BCE70949F8E700BFA40D0020190000202E
:10360000E81F00213F00C0E05841084400400E4040
:10361000004008400400000B0841084408B590F839
:103620006830032B04D00846FFF75EFF002008BD7A
:103630000220FCE70C4B032210B51A605860EFF330
:10364000108072B6D3F8E020520758BF04224FF022
:103650000004DC60996058BFC3F8E820FDF72EF83D
:1036600009B102229A6210BD001008402DE9F0470E
:103670008C4DDFF868A2EF680446884600F13406F6
:103680004FF00109B8F1000F04D0D8F80020511C08
:1036900040F08A80FDF72CFE834B84499A690978B3
:1036A000C2F382129142984604D0814B3146186889
:1036B000FEF7D2FAD8F8843013F4E05F04BF202379
:1036C000C8F81032EB6823632046FEF751FB8046B2
:1036D000FEF7A4FA744B774DD3F83011C00811F4FB
:1036E00000414FEAC01008D000F57443DFF8F081C4
:1036F000714A2433B3FBF2F36B60704B00EB58005C
:10370000B0FBF8F0A8605A68D20200F18F806C4AD2
:103710001268D3F8A800C2F3810210F4806302F1AA
:103720000102C0B218BFD300FF2806D06348D0F80A
:10373000AC00400501D503EBC20301B103332B619B
:10374000604B614A1B68C3F3812313705F4B1B6896
:10375000C3F381235370226BBA421ED05C4D5D4986
:1037600022B1136813B19768002F61D1EFF3108075
:1037700072B62B6823F007032B60FCF79FFF002332
:10378000C1E90033002A40F0818000231A46E36338
:10379000626307213046FDF71FFA237843F00203E6
:1037A00023700020BDE8F087C2F30260C2F3074136
:1037B0005AF8200093B2012943EA000310D98A0085
:1037C00002EB08004146A3EB080E0EEB010C51F88A
:1037D000043FCCF800308842F7D10432904451E7DE
:1037E000120FD8F8040008F10808072A3FF64AAF7C
:1037F000DFE802F00A0408110C0F1417C04303F1AC
:10380000806301E01A68504018603BE7FDF79EFBBB
:1038100038E709FA00F003F1C063F5E709FA00F0B0
:10382000EDE71A6830EA0202FBD12BE7002384E7B8
:10383000294B0720186097F804C081F800C07879F8
:1038400090FAA0F3B3FA83F3202B08BF4FF0FF33B5
:103850005FFA83FE20FA0EF003F00F0343EA001331
:103860004B70BB798B70FB79CB703B684B60134915
:103870000CF101038B61EFF3108072B62968CB4322
:1038800003F007034B402B60FCF718FF1368002B75
:103890003FF47BAF1269002A3FF477AFD2E90023EF
:1038A00075E700BFEC1F0021006008402C000020DD
:1038B000A00D0020841F002148E8010000000840FE
:1038C00000200840A0000840980D0020A4000840F7
:1038D000F01E00214C1F0021040008441489000040
:1038E00020A107002DE9F04F704E89B03368019395
:1038F000D0E90A7543880293019B4FF0000AAB425E
:103900008DF81FA0044689468DF81EA003D113B17F
:10391000029B99424CD0002F00F0BB80BB68002B6B
:1039200000F0B780FB68002B00F0B380604B03937E
:10393000D3F800804FF0000B18220123F968594595
:1039400018D9B96802FB0B1ABAF80E10494534D8D9
:10395000BAF81010494530D35146204605928DF8EB
:103960001E300493FEF760FBDDE9043220B38DF8CE
:103970001F305546A4F10C0304934E4B93F800B04E
:103980009DF81F30E3B121792046FFF747FEB8F1DB
:10399000000F5ED0B84534D1336893B3AB4230D119
:1039A000029B994519D1E562A4F802904FF0000AF4
:1039B000504609B0BDE8F08F55460BF1010BBDE74D
:1039C0009DF81E30002B67D03B4BB5F912201978BB
:1039D0000498FDF707FE0146D6E700232A4649462C
:1039E0002046FEF707FF82460028DCD059462046D5
:1039F000FFF714FE0023326802992046FEF7FAFE14
:103A0000D6E7D8F8003023B33A68934221D1D8F8EA
:103A100004102046FFF72AFE824600283FD129687D
:103A20002046FFF723FE8246D0B9039BE5621F6064
:103A3000A4F8029001232A46494620463560FEF745
:103A4000D9FE824660B91D4B04981B6829469847E9
:103A5000AEE739682046FFF709FE82460028DED02F
:103A6000039BC3F80080019B3360B8F1000F04D0C2
:103A7000D8F800102046FFF7F9FD59462046FFF719
:103A8000CDFD3368002B93D019682046FFF7EEFD7B
:103A9000B0E74FF0030A8BE74FF0010A88E7039B7A
:103AA000C3F80080019B3360E2E700BF28090020D3
:103AB0002409002019000020A40D0020300000205F
:103AC0002D4BD3F8883013F0A00F10B54FD1FFF76E
:103AD00009FF0446002848D1284B294A29484FF4B9
:103AE0004061196013789B020360274B196053787B
:103AF000264A9B021360FDF741FA254B4FF4806282
:103B00001A60A3F5FC53143B04221A60214B5C613C
:103B1000643B1A68920642BF1F4A4FF480711160DD
:103B20001B6803F0A002A02A1FD11C4813F4001F39
:103B3000036803F0070303F106014FF0010303FAE2
:103B400001F3016A0CBF03220422C1F30C01013B03
:103B50008A429BB20DD24168C068024413400B44B4
:103B600003F100531A780E4B5A60204610BD022410
:103B7000FBE70324F9E700BF00400840A000084429
:103B8000980D0020A0000846A4000844A4000846A0
:103B90001C600844541F002188400846001008405B
:103BA000F41E0021F8B50023CE688162C3624FF68F
:103BB000FF751827DAB2B24208D32C46094B00220F
:103BC00021461A60FFF78EFE2046F8BD8C6807FB81
:103BD0000242D489AC4202D2002CEFD025460133F8
:103BE000E8E700BF240900202DE9F8434C4D2C687C
:103BF0006860237BD90750D50668477A436893FAF3
:103C0000A3F3484A1B0A136101239360F20759D5B5
:103C1000237BDB0758D5444BD3F8303113F4004FE6
:103C20000CBF5523AA2340490E66CA6D552B22F0BE
:103C30000F020CBF42F0010242F00202CA6596FA7E
:103C4000A6F693FAA3F31B0B384A03F4702343EA56
:103C50001643374E166002F1007247F040071360BA
:103C6000344B4422DA621F6303F18063343307224A
:103C70001A6003F1007301221A60D1F8303113F495
:103C8000004F14BF2C4A2D4A4FF4804313602C4A36
:103C90004FF480431360536093602B8CD9050FD58C
:103CA000284B067A1A78B242994609D0012E04F1BF
:103CB0000C080BD0022E20D06B681B7A89F80030DC
:103CC000BDE8F883AA23AEE75523ACE7237BDA07E8
:103CD000F2D5FDF713FC01280646EDD11A494046FE
:103CE000FFF760FF282384F84460A4F84E300221D7
:103CF00004F14000FCF770FFDEE7237BDB07DBD538
:103D0000FDF7FCFB01280746D6D110494046FFF7D6
:103D100049FF282384F84470A4F84E303146E7E781
:103D2000441600200020084000600840FC60084461
:103D3000FFFF0F0000000840A0000846A000084454
:103D4000A40008442C0900201C710000D47300005A
:103D50002DE9F843334C344F2646637A334D013313
:103D6000DBB2272B88BF252320466372FFF73CFF79
:103D7000B17B2F4896F80C800231FFF75BFC6B6833
:103D80002C4A5B7A08F00108404612F80390FDF7D0
:103D900073FDD5F80080494608F10C00FFF790FE4E
:103DA000C0B9B8F8561042F21073994294BF591A2C
:103DB0000146EFF3108972B6DFF88880D8F8303109
:103DC000DB0704D4D8F80C0010F0060005D04846F4
:103DD000FCF774FCFEF70CFEBFE7174B1870FCF7FE
:103DE00029FD164BC8F86C30154BC8F87000082236
:103DF0001A60144B4FF4006001223A60586640F696
:103E0000014018670320FDF73DF918B90C4B8022DB
:103E10001A60DCE74846FCF751FC0B4B2B61BDE810
:103E2000F88300BF1C0300203051084444160020D2
:103E300029030020EA880000AC17002000000101DF
:103E40008840084400500840D944000070B590F8FC
:103E50006830032B05460E4611D02971C16A81B125
:103E6000FEF7E2F830B9E86269882846FFF73AFDC4
:103E7000002070BD31462846FFF7D0FBF8E702204E
:103E8000F7E70846F5E70000144A154C08B5937E9D
:103E900043F040039376134B00221A70124B1B78A9
:103EA000012573B1FDF7E8FD4FF00053A5600F4AFF
:103EB0001A60236823F4E06343F480632360FDF712
:103EC00073FD4FF00052A5601360236823F4E06394
:103ED00043F480632360FDF767FD00BFB80800204E
:103EE00000500E4014090020C503002002020FF00C
:103EF00010B5134CA37E5B0621D4FEF779FD216833
:103F0000A38C40F2E24202FB0312226094F84F10AD
:103F1000A27A25200A4492FBF0F100FB1122A27242
:103F200022890132228162680A2101FB0323636036
:103F3000238B5A1E228313B90820FFF7A5FF10BD5B
:103F4000B80800202DE9F74FDFF88C91DFF88CA13D
:103F5000534C40F601002189FDF7C8FBA37E13F006
:103F60004002254640F0998043F0010303F0FD0331
:103F700062F382034B4AA376136823B121899288A6
:103F8000914200D19847A37A47481D4495F82A30BA
:103F90006375FFF729FED4E90087444C444A6368FF
:103FA0005B7A0120D15C0191FDF766FC2568FDF785
:103FB000A5FA012805F10C068346019904D0FEF705
:103FC0003FFBFFF795FFC3E73046FFF78BFC002868
:103FD000F5D1B5F85010EFF3108572B6354ED6F81E
:103FE000302112F0010203D02846FCF767FBE6E718
:103FF000314BF366314B326783F800B0304B1A70A7
:10400000D9F8003023F04003C9F800304FF40063C2
:10401000CAF800B07F0873662A4BF366A8EB070363
:10402000591A0320FDF72EF80028DDD0D6F83031DC
:10403000DA0703D4244B5B685B04D5D5234B1D4EB4
:104040004FF0010B83F800B0FCF77EFD204BC3F866
:1040500000B04FF480537366F36E23F0F85323F4EB
:10406000F81343F0506343F4803308F16401F366BE
:10407000002239440420FDF705F838B94FF40063F5
:10408000CAF800B073660C4BF366ADE72846FCF740
:1040900015FBFEF7D5FA0F4B236103B0BDE8F08F97
:1040A000B8080020F4110020C408002044160020A5
:1040B000EA8800000050084000000101AC17002011
:1040C000AE170020010C010000400840AD17002091
:1040D0004051084435410000F01E00213051084491
:1040E00008B5024B9879FFF7CFFE00BFF41100200E
:1040F00010B5034CA01DFDF78DFB0023236010BD00
:10410000F411002010B5094CB4F80710A079FDF7A0
:104110006DFBA368064AB4F80D10D184C3F30F23D6
:104120009384FDF745FB0023236010BDF4110020AC
:10413000B808002002282DE9F7430F460BD003D81A
:10414000012800F0AC81FEE7032800F0B081FF28D1
:1041500000F0AD81F7E748784E68B84D10F00104E3
:104160005BD14FF0FF3140F60300FDF7BFFA264662
:10417000AB7EB34C13F0200F12D0696D6FF3451373
:10418000AB76002900F09980237895F8582062706A
:1041900043F003032370A01C02F051FE00236B6563
:1041A000A848FDF7EBFAAA7E2378003018BF01205B
:1041B00060F34102C2F30011AA7661F38203C2F3F5
:1041C000C00262F3C30360F304132370218840F636
:1041D0000200FDF78BFA617899480231C9B2FFF706
:1041E00029FAAB7E7C68D90709D56FF30003AB765B
:1041F00000236B60FFF7A6F82860FDF7D9FA4EB1EF
:10420000237803F00303022B00F031816DD8012BDA
:1042100000F02C8103B0BDE8F083318840F6030044
:10422000FDF764FA3378A97E96F80080C3F3001393
:1042300063F38201A976C8F3C003C1F300118B4276
:1042400006D108F00303022B05D019D8012B31D079
:104250000026344615E0A146767896B17A48848ADD
:10426000FDF78CFA201A80B2B9F1000F04D00228B1
:1042700086BF023880B2002086428CBF0024012411
:104280002646AB7EC8F38008C3F3C002904507D032
:1042900082F0010262F3C303DBB243F02003AB768A
:1042A000002C3FF465AFAB7E81F0010161F3041394
:1042B000AB765DE74FF00009CEE795F8283061480E
:1042C000A21C0DF10701FDF7C8FFC0B258B19DF85F
:1042D0000730002B0CBF012202222378607062F3AA
:1042E000010323705CE70122F7E7A378022B65D076
:1042F00011D8002B4DD0012B38D0544A127822B15E
:10430000162B7FD0182B00F08C80514807220270AA
:104310004370022127E00C2B18D0142B56D0082B09
:10432000EBD14C4B54F8035F198CC8B205EA00027C
:10433000474801F47F41044642EA0105092104F897
:10434000011B0023C0F8015063600CE040484FF0AF
:10435000FF32037001234370827003710222002335
:10436000C27043710621FDF717FA53E7617A237A89
:10437000394A43EA012393801346384943F8061B20
:1043800054F8031FC2F80610A2889A80A2799A7185
:1043900040E7627B237B304943EA02238B800B4654
:1043A0002F4A43F8062B54F8032FC1F80620626801
:1043B0005A6022891A81A27A9A722BE72A89264B9F
:1043C00005329A80274A1A60E278E0E7B4F80530AF
:1043D000B4F803201E48DB08934228BF13462B8500
:1043E000152300216FF004046FF0270203700723E8
:1043F000817081714470C27003714471C271037223
:104400000921B0E72279E3781148134003F0030350
:10441000022B18BF012317220270437083700321FF
:10442000A1E76279A1790C4B42EA01229A800E4AF7
:104430001A60D4F80320C3F80620EBE6B808002081
:10444000201A0020D8100020C00F0020F1110020F9
:104450000812002044160020F4110020F140000052
:1044600005410000E1400000C14400000026124860
:10447000818AFDF783F9081AA51C80B2647826B1F9
:10448000022886BF023880B20020A3B283423FF6E2
:10449000C1AE2A4631460848FDF717FEBAE6074B7B
:1044A0009B7E9A073FF5B6AE5B073FF5B3AEFFF7CD
:1044B0001FFDFFF747FDADE6C00F0020B808002044
:1044C000034B044A9979117500221A60704700BFA6
:1044D000F4110020B808002002282DE9F0411FD077
:1044E00002D8012807D0FEE7032800F09880FF28B3
:1044F00000F09580F7E74B4C237B980707D5FEF734
:1045000077FAFFF725FC237B6FF341032373237BAB
:10451000990701D4DA0764D4BDE8F041FFF718BC6D
:104520004B784C68DB077AD5227802F00F07032F0F
:1045300059D0052F73D13C498B7B03F00103B3EBBA
:10454000D21F04F108004CD10622083102F068FCA9
:104550008046002845D1FEF74BFAFEF7F3FE334DB7
:10456000414606465C22284602F052FCAB7E2F8371
:1045700043F02003AB76627E237E43EA0223AB84C2
:10458000627F237F43EA0223EB8494F82330C3F352
:10459000040385F84F3094F82330C3F3421385F8B1
:1045A000503004F11E001B232B85FDF733F9D4F89E
:1045B0000E30E27CEB60A37C2E6043EA0223227D76
:1045C000607D43EA02432B61012795F84F30AB72BF
:1045D0002F75E18A3944FDF709F9FFF7B3FC144B55
:1045E0001F70BDE8F08110498B7B03F00103B3EB32
:1045F000D21F04F10800F4D10622083102F010FCA9
:104600000028EED1074C94F8361004F13500023141
:10461000FFF710F8237B43F002032373E1E7FEF773
:10462000E7F979E71C03002044160020B8080020B1
:10463000140900202DE9F04385B0884669460446F8
:1046400081E80C000C9EBDF83470FDF761FA4FF65E
:10465000FE7905460DB1444505D94FF6FF74204655
:1046600005B0BDE8F0832B7A9DF804209A421ED154
:104670000099686802F0D4FBC8B9002EEFD02B690E
:10468000AA8AA3B14A4509D10290ADF80C0002A94B
:10469000984760B9029BBDF80C2043B1974206D100
:1046A0003A461946304602F0BBFB0028D7D0013409
:1046B0002D68A4B2CEE738B50D4611462C68A41A71
:1046C0002246014402F0C6FB2C6038BD2DE9F047BC
:1046D0004B4E4C4B34684C4DA0EB04094B48C5F88D
:1046E00000901B1A4A48034423F4FF6323F0070396
:1046F0009945B0466BD31444FDF7F0F84C44A0F54F
:104700008050844263D230681418B4F5806F03D9A6
:10471000404B82221A7058E03F4F384402F08FFB22
:1047200034603E4ED6F800A0BAF1000F1DD1B4F5AA
:10473000867F4AD33A4A07F1FC0307F5867753F898
:10474000041B42F8041BBB42F9D13548FDF7CEF8F3
:1047500010B9304B8422DDE71022FF21314802F0EE
:1047600057FB314A09F1FC03136004F003072F489B
:104770004C44E41B0440BAF1000F0BD109EA0000DD
:10478000C0F500612144FDF721F9346048B1214BA7
:104790008522BFE7A24504D2A4EB0A010AF5006016
:1047A000F1E7D8F800201C492868D21BFDF726F94C
:1047B000D8F800202B681249D21B0446134416482F
:1047C0002B60FFF778FF002CE1D1BDE8F087184B94
:1047D0005B68B3F1827F0F4B0FD218780A44002434
:1047E000914203D1002CF0D01870EEE711F8015B74
:1047F000FF2D1CBF01248320F2E783228AE700BF3C
:104800002C160020A40000209C0D00201000002089
:10481000FF910000850D0020291200203C16002089
:1048200014120020251300202412002000F8FFFF9E
:10483000DC0300202DE9F04F01288BB040F04881C7
:104840008A88002A00F04681A44D95F800B0BBF19B
:10485000000F00F04181A24B1C7898465CB9A1483A
:10486000067882463EB9A04E30681718B7F5806FBB
:1048700005D982241C7020460BB0BDE8F08FDFF80C
:1048800088920968484402F0DAFABBF1020F3760F7
:104890003DD0032FEFD9954F3846FDF7FDF83B7813
:1048A000D9F80020012B924B62D19A4262D1BB68A9
:1048B000DB0368D502232B70FDF7DEF88D4B1A68F9
:1048C000A2F17E63A3F58433B3F5605F0BD2126B64
:1048D000A2F17E63A3F58433B3F5605F03D29368DE
:1048E00003A9002098470398834B844A186020F45A
:1048F000FF6323F007034FF400611360FDF766F8D0
:1049000088BBFDF713F840BB2B78022BB3D17C4951
:104910007C4F08783A68336810F0F70F894640F00A
:10492000AC8075490D681D4403F0030B1544734BAF
:104930000193A5EB0B0525F4FF65186825F0070525
:10494000854223D9291A00F50060FDF73FF8019B45
:10495000D8B1852488F800408DE74FF40061FDF759
:1049600035F80028D0D0852388F800301C4682E72F
:104970009A4208D0842388F8003098F80030002B41
:104980003FF479AFF0E78623F5E71D6031683868BA
:10499000A1EB0B01FBF72EFD32683B685249A2EBFD
:1049A0000B020546134458483B60FFF784FE002D78
:1049B000CFD199F80030002B7FF45DAF3B687F2B9F
:1049C0007FF759AF02A903A8FBF7EAFC10B9039BD4
:1049D00089F8003099F8003013F0F70F3FF44BAF2F
:1049E000444D3B682968A1F17E62A2F58432B2F59C
:1049F000605FAED2096BA1F17E62A2F58432B2F59E
:104A0000605FA6D2D1F80C903F4A00210846C84703
:104A100000289ED13B683360384B3C4F18603C4BBC
:104A20007B602A68A2F17E63A3F58433B3F5605FEF
:104A30008FD2936A37484FF400719847002888D185
:104A400029683368A1F17E62A2F58432B2F5605F15
:104A50003BD2CD6A2C4A2F483946A84705463268D2
:104A600021492948FFF727FE40F203239D421ED02B
:104A700040F201239D4226D1FDE61A443A601D4AC8
:104A80001168A1F17E62A2F58432B2F5605F12D2A4
:104A9000CD6A1D4A1D491F48A8470546326812497C
:104AA0001948FFF708FE40F203239D4206D1012377
:104AB0008AF80030DFE640F20225EFE740F20123FA
:104AC0009D423FF476AF802444E740F20225C6E7DA
:104AD0000024D0E60D24CEE68124CCE6860D00200D
:104AE000850D0020840D0020800D0020DC030020B7
:104AF000EB17A6032808E10F101800203C16002031
:104B0000B8030020AC0D002080090020B00D00206B
:104B1000CD460000C00D002001282DE9F34740F0EC
:104B20002F818B88012B40F02D810B681B7813BBE4
:104B3000964A974C1360974A1360974A1360974AB6
:104B40001360974A1360974A1370974A1360974A05
:104B500013602278022A01D1FCF77EFF0123237023
:104B6000934B00241C70934B1C70934B1C7020467D
:104B700002B0BDE8F087032B40F0EF808E4B844EEF
:104B80001C78002C4AD13378002B00F0DE80854B56
:104B90001B78082B7AD17D4A136890468BB9874DD4
:104BA0002B68A3F17E63A3F58433B3F5605F50D324
:104BB0004FF4017041F20803984200F0C88080244D
:104BC0002CE013F003071ABFC7F10407FFB2274612
:104BD00003EB070ABAF5806F00F2BD8078483A46C9
:104BE0001844FF2102F014F96F4B6A4AC8F800A07C
:104BF00015681A6815445544DFF8A4A125F4FF652B
:104C0000DAF8000025F00705854299460BD9291AE4
:104C100000F50060FCF7DAFE18B18524002333703C
:104C2000A5E7CAF80050D8F80010D9F80000FBF743
:104C3000E1FBD9F80030D8F8002054491344054668
:104C4000DF1B5F48C9F80070FFF735FD002DA6D0C7
:104C5000E3E7FBF7F3FB0028ACD12A680190A2F14F
:104C60007E63A3F58433B3F5605F0BD2126BA2F1C0
:104C70007E63A3F58433B3F5605F03D293690121AA
:104C800001A898474B4B01221A70C7E7002B60D050
:104C9000474B1B78002B92D0444F3B6843B93F4BA6
:104CA000484918681022FCF7A9FE0028B6D0B4E7DE
:104CB00013F003021CBFC2F10402D2B29D18B5F575
:104CC000806F48D84048FF21184402F0A1F83F4ABD
:104CD0003F4B31483F493D609B1A3F4A13440268AD
:104CE0000B409342804601D9832497E71544FCF793
:104CF000F5FDA0F580508542F6D23D68DFF8A09022
:104D00002A44D9F8000002EA0105854209D9291A86
:104D100000F50060FCF75AFE00287FF47EAFC9F86A
:104D200000503A682849D8F80000FCF767FED8F828
:104D300000303A681D49054613442348C8F800303E
:104D4000FFF7B9FC002DAAD067E7812466E7862427
:104D500064E7842462E7822460E7042B14D11F4CAB
:104D600013230221637020462170FCF715FD1C4AB5
:104D70001C4B128905329A801B4A1A6062789A711C
:104D80000024F4E60D24F2E60624F0E6800D00206F
:104D9000860D0020101800209C0D002024120020F9
:104DA0003C160020B8030020AC0D00202C1600207B
:104DB000840D0020C5030020850D00202808E10F88
:104DC0008009002014120020291200201000002069
:104DD000A400002000F8FFFFFF910000081200204F
:104DE000B8080020F4110020E1400000094A0A49F7
:104DF00008B5D2F8883043F47003C2F88830074B06
:104E0000074A8B4201D3FBF799F952F8040F43F894
:104E1000040BF6E700ED00E0A400002010000020E5
:104E2000BC890000FEE700002DE98048A84B5B68C4
:104E30005A05ABB000F1D1824FF0005300221A6046
:104E400022A8FCF729FEFCF771FD0546002840F07A
:104E50003D83A04A136843F4807313609E4B022283
:104E60009A639A6B02F00F02022A40F0BE80DA6C5D
:104E700022F0405222F0010242F00102DA64D3F83B
:104E8000E02042F44072C3F8E020DA6E42F0807213
:104E9000DA66924B186800B10420FBF7A3FB904B35
:104EA0008D4CC8221A808F4BA0221A808E4B0F2067
:104EB00000251880FBF72EFB8C4BA365CDE91A5516
:104EC000CDE922558A4BD3F86831C3F30722DBB210
:104ED00024921C93E36CC3F301782A46434622A92B
:104EE0001AA8FBF791FBD4F8E070C7F301272A4614
:104EF0003B4623A91BA8FBF787FB249C1C9ADDF8E3
:104F000088C0DDF86C90A11A4FF416735943B1FBB9
:104F1000F3F329461A9DD2184FF41676ACEB050030
:104F200028BF01217043B0FBF6F02D182398A0EBA9
:104F300009032CBF4FF0010E4FF0000E7343B3FB7B
:104F4000F6F319EB03092CBF0123002394424CD341
:104F500000294AD1484548D3002B46D1AC4544D31B
:104F6000BEF1000F41D15C4CE36D23F4FE4323F00E
:104F7000020343EA0223E3654046FBF79BFA00285D
:104F800033D001213846FBF795FA00282DD0636E07
:104F90004D4538BF4D46E72D23F4FF7328BFE72565
:104FA00023F0010343EA45036366E36B43F4806344
:104FB000E363214623469A6FD707FCD41B6C4D4A06
:104FC00013F003030DD0012313608B6FDE07FCD4B5
:104FD0000B6C23F003030B643F498B6F13F0010349
:104FE000FBD11360444B01221A60444C394E11200E
:104FF000FBF768FB00210220FBF726F9636A4048B3
:1050000023F0010363623F4B00251D60A36A23F078
:10501000070343F00603A3623B4BE362226B3B4B67
:1050200002F07F6213432363394B63632946FDF724
:105030005FF93848FBF7D4FB01210220FBF704F9A4
:10504000376C2F4841F6713333642946FBF798FBE0
:1050500007B13564304B1D68002DFCD10223636716
:10506000FCF7F6FEFBF7BCFBFCF7E4FE0646FBF79D
:1050700017FB01463046FBF7A5FB01212846666A6F
:10508000FDF736F9FBF70CFB01461D48FBF79AFBD1
:1050900046F040561A48FBF7A3FB6662D4F8C830C6
:1050A000134E43F00103C4F8C8301C4CB36AA36527
:1050B0000CAA0EA93520FCF7CDFE0596234678B341
:1050C0009DF83020042A06BF0E9A1068284627E073
:1050D00000500E4000000E4000300E408009C643D4
:1050E0004E090020520900204C090020372110B73A
:1050F000B081E00FB40AC6439407C64300400E4097
:1051000000F04902A004C8432000050007450BD069
:1051100047A002000148E801C800C643005008400B
:10512000C50340F111829A6D8DF840209A6D8DF87B
:1051300041209A6D8DF842209A6D8DF843209A6D2A
:105140008DF844209B6D43F060038DF845309DF849
:10515000463043F001038DF84630A44B10AA5A6044
:10516000A34BA44A9A60C3E900224FF48070002246
:1051700058611A82A049A14BC3E900115861996096
:105180001A829F4B9F48082119709F4B9F491960B5
:105190009F4BA0491960A04BA0491960A04BA149A1
:1051A0005860A14819600360A0481A620160196B39
:1051B0009F4883F86C20914208BF01469D48DA63FE
:1051C00001604FF06411DA64C3E916121A664FF6F3
:1051D000FF72C3E914119A821120FBF773FA0428B5
:1051E00040F03584944B5B6813F4403F40F02F84CB
:1051F000924B93499348FD22C3F8C8200122C3F87B
:10520000CC20914B1A684AB102EA0104844204BFDF
:105210005C681460059A08339342F3D18B4B8C4938
:105220005A691A691A699A69DB698A4BC1F844316B
:1052300048F2E673C1F838314FF40863C1F83431ED
:10524000854BC1F8A030854B854D864C864E4AF67D
:105250003F429A6003F580434FF0C0729A62002388
:10526000C1F8FC30814BC1F89C30814B7F221A6021
:1052700003F1007323221A6003F5425334330322EF
:105280001A604FF40023C1F89430012740232F60A7
:10529000784A2B604FF4607323604FF040731360C3
:1052A00093614FF400133360FBF718FB2760CDE9DF
:1052B00008650C46FBF756FC05460028FAD1012389
:1052C0004FF00450E06741F24822C4F880306A4948
:1052D0006A4E01F0B4FD6A4B2366AC222946694848
:1052E000376801F095FD684B684A5A602946642288
:1052F0003760674801F08CFD059BC4F88850C4F8FE
:105300008C50C4F890505A6D1B68D2B2FF2A43F3F8
:10531000074301D05C1C01D1902219235949DFF8C1
:10532000A4B1DFF8A481022093FBF0F342FA83F3E7
:10533000CB7323234B73574B88734FF603721A605A
:1053400003F10073099A00241C604FF0804313603E
:10535000514B524A1A60524B03221A80514B524A07
:105360001C80524B1C605A604FF400525A62504BE2
:10537000F0221A6003F10073A0221A604D4B01273E
:10538000C3F8B870FBF7F8FF4B4B1F604B4BCBF8E3
:105390000030FCF743FC4FF4FA734FF47A76B0FB1D
:1053A000F6F56B431A0E1B028246184610EB0800F6
:1053B00011464FF000094FF00003414A41EB09014B
:1053C00000F080FFA0F580738046CBF828300028DD
:1053D00040F0E4802B20FBF7FDFF4FF000531A68EC
:1053E000022A7FF429AD00221A6032E5C8030020AA
:1053F000D8100020F0100020D80F0020C00F00208F
:105400003116002068160020201B0020C474000004
:10541000281B0020DC740000241B0020CC7400003A
:10542000741600202D3100001801002028000020F3
:10543000FB1400003000002000300E4000400E4001
:105440000000FFFF000008400080E00FD0FF0FE0E9
:1054500000400840C0E653517A27000F0030084052
:10546000944008460C40084618600846806D630367
:1054700024300844F840084600760000E81F002168
:10548000C01F0021541F0021EC1F00213F003700E6
:10549000F01E00217C000844401600207508000022
:1054A0000A01002008010020141700209010084075
:1054B00040000844001008400C400844001101005E
:1054C00040420F000050084020A107009DF888309E
:1054D000012B32D1446BFCF7CFFA249B5B0715D527
:1054E000FCF724FAFCF7A8FA0446FCF7B5FA002CFE
:1054F0003FF4AFACFCF71AFA0446FCF717FA254B59
:10550000986023689D4663689847A2E484B1FCF7DD
:10551000E5F984420CD2FCF7E1F904F13803834247
:1055200006D8636923B12046FCF7E0F90028D7D1FB
:1055300005F1FC00FCF7DAF9D6E7FC30FCF7D6F908
:1055400000283FF486ACD5E70DF12F020EA92C20E0
:10555000FCF780FC00283FF403AE10AC9DF82F2030
:105560000E99204601F06BFC0DF12F020EA93C2094
:10557000FCF770FC9DF8463040B10E9A127862F349
:1055800000038DF84630044B5C60E9E560F30003EE
:10559000F7E700BF00ED00E0C803002006FB00F2C3
:1055A0004FEA520C2B02194614EB0C00234641F132
:1055B000000100F087FEBE4BCDE90201039A1A609C
:1055C000BC4B029A1A604FEA08604FEA1828002D77
:1055D0003FF400AFA0FB062306FB08331046194634
:1055E0004FF4FA63BAFBF3FA10EB0A002A4623469B
:1055F00041F1000100F066FEAF4BDFF83CA31960FB
:10560000AE4BAF4E1860DDE90201023041F10001FE
:10561000830843EA8173013BCBF83030A94B4FF04C
:1056200000524FF00708C3F880211A60CBF80470CD
:10563000CAF88480FCF7F2FA4FEAD009030B194646
:105640004FEAC9530546184680194FF000077941C3
:105650009D4A9E4F9E4E002300F034FE9D4B1860E5
:105660004EF66020FBF7A2FADDE9022340427063A8
:10567000A2FB0701DBF830C0CDE906010799002342
:1056800007FB03130793DDE90601039B10F10040BC
:1056900041F1000107FB031262454FEA555328BF51
:1056A000624619464FEA893355081846401941F1B8
:1056B0000001234600F006FE874BF0604146A3F14F
:1056C0006000FBF789FA854BCBF80031099A8449D1
:1056D000A3F52003CBF810314FF400230C701360B6
:1056E000804BD3F8C82042F06C00824240F0AB817E
:1056F000DAF80C20D00700F1A681D3F81031C3F3FB
:105700000823002B40F09F81EFF3108072B6764B98
:10571000764C9D69089EA3F5C0434FF06052D3F8C4
:10572000847022604FF0006232602422C3F884202B
:105730006F4A042616604FF480429A664FF48052F6
:105740005A621A6E5204FCD51A68D605F9D5DFF8EC
:10575000ECC14FF480469E664FF0040ED3F88820CB
:10576000CCF800E0C3F884704FF0605727603D40EC
:10577000089F3D609E6692B2FAF7A0FF4FF60400C4
:105780004FF60503824208BF1A465A4B9A65012319
:105790000B70594B1868FBF717FB4822002157483C
:1057A00001F036FB564B60225A64564A06211160BE
:1057B0000022C3F88420544B4FF080521A60534BA0
:1057C0001A6A12F0800F4FF4001200F03E8108991F
:1057D0000A604FF4001222604FF0605222604C4A7F
:1057E0004C4840F6FF745462546502F1C062A2F660
:1057F000BC7260211160484A40211160196AFBF7B0
:10580000D5FBFBF76BF8454BD3E9000140F0805521
:1058100041F00406C3E90056414B31461A68284658
:10582000FBF7CAF8FBF740F83E4B3F4A1A603F4B84
:10583000032119605A605C62344B3D4E3D4F33602A
:1058400017A1D1E90001C3E9170103F10C04FBF72B
:1058500045F8324BD3E900010FF24C09D9E9008930
:1058600000F0010A4FF0000B4AEA08004BEA090178
:10587000C3E900012A4B1A68FBF79EF8FBF714F8FE
:105880002046FBF75FFE306802210C30FBF78EFBF1
:10589000306894239622A0F85830002564234FE006
:1058A000081B880200000000081B8812040000008A
:1058B000301B00202C1B002038160020341600203E
:1058C000B2E60E0000E100E065CD1D0040420F0091
:1058D000841F0021A4170020141700200300C0001B
:1058E0005009002000400E40006008401860084445
:1058F00000400846005008401C000020041F002102
:1059000000000840700008449440084474160020C9
:10591000001008408016002088400844900D0020A8
:10592000880D0020C40000201C0100203010084019
:1059300044160020A40D0020004008400040084408
:10594000A0F85420A0F85630A0F85030C5640721C4
:105950004030FBF741F93468454904F10C00FEF78B
:1059600021F9012384F844302823A4F84E3004F1AF
:1059700040000221FBF730F93E4B4FF4F0621A6011
:1059800003F100734FF400721A6003F58043503343
:105990004FF000621A60237B374A43F00103237300
:1059A0001368364C23F00F0343F003031360059B89
:1059B0005B6A13F0010F18BF25703568002105F1EF
:1059C0000C00FEF743FA2E4BFD22C3F8C82005F168
:1059D000400801222B4DC3F8CC2000222A602278F7
:1059E000D3F88831022A34D113F4001F50D1236830
:1059F0003B60A388BB800020FDF776FD4146A08870
:105A0000FCF72AF92B683A7823F08043022A23F026
:105A1000170340F0A1811C4A4FF4EE41116002F1DE
:105A200000724FF48A41116043F08043012142F833
:105A3000041C2B600020FDF757FD144B03221A6055
:105A4000FBF756FC29E01420C5E42260C1E60023E0
:105A5000F3E6012A02D113F4400FC7E7C2B9059A51
:105A6000526AD24302F0010203F480031343BDE7FC
:105A70001C71000044000844541F0021360000201F
:105A800000400E40E81F00212441084458410844CA
:105A900003233B70B94BFF221A70B94D2178B5F939
:105AA00000203068DFF89493FBF79CFD33680146D3
:105AB00003F10C00FEF7CAF96C68002C40F0CF81AE
:105AC0004846FBF7FDFDB37B64F30003B373AD4BB6
:105AD000AD4CAE4FAE4D202283F80123002183F858
